{
  "_format": "hh-sol-artifact-1",
  "contractName": "LandToken",
  "sourceName": "contracts/LandToken.sol",
  "abi": [
    {
      "inputs": [],
      "stateMutability": "nonpayable",
      "type": "constructor"
    },
    {
      "inputs": [
        {
          "internalType": "address",
          "name": "sender",
          "type": "address"
        },
        {
          "internalType": "uint256",
          "name": "tokenId",
          "type": "uint256"
        },
        {
          "internalType": "address",
          "name": "owner",
          "type": "address"
        }
      ],
      "name": "ERC721IncorrectOwner",
      "type": "error"
    },
    {
      "inputs": [
        {
          "internalType": "address",
          "name": "operator",
          "type": "address"
        },
        {
          "internalType": "uint256",
          "name": "tokenId",
          "type": "uint256"
        }
      ],
      "name": "ERC721InsufficientApproval",
      "type": "error"
    },
    {
      "inputs": [
        {
          "internalType": "address",
          "name": "approver",
          "type": "address"
        }
      ],
      "name": "ERC721InvalidApprover",
      "type": "error"
    },
    {
      "inputs": [
        {
          "internalType": "address",
          "name": "operator",
          "type": "address"
        }
      ],
      "name": "ERC721InvalidOperator",
      "type": "error"
    },
    {
      "inputs": [
        {
          "internalType": "address",
          "name": "owner",
          "type": "address"
        }
      ],
      "name": "ERC721InvalidOwner",
      "type": "error"
    },
    {
      "inputs": [
        {
          "internalType": "address",
          "name": "receiver",
          "type": "address"
        }
      ],
      "name": "ERC721InvalidReceiver",
      "type": "error"
    },
    {
      "inputs": [
        {
          "internalType": "address",
          "name": "sender",
          "type": "address"
        }
      ],
      "name": "ERC721InvalidSender",
      "type": "error"
    },
    {
      "inputs": [
        {
          "internalType": "uint256",
          "name": "tokenId",
          "type": "uint256"
        }
      ],
      "name": "ERC721NonexistentToken",
      "type": "error"
    },
    {
      "inputs": [
        {
          "internalType": "address",
          "name": "owner",
          "type": "address"
        }
      ],
      "name": "OwnableInvalidOwner",
      "type": "error"
    },
    {
      "inputs": [
        {
          "internalType": "address",
          "name": "account",
          "type": "address"
        }
      ],
      "name": "OwnableUnauthorizedAccount",
      "type": "error"
    },
    {
      "anonymous": false,
      "inputs": [
        {
          "indexed": true,
          "internalType": "address",
          "name": "owner",
          "type": "address"
        },
        {
          "indexed": true,
          "internalType": "address",
          "name": "approved",
          "type": "address"
        },
        {
          "indexed": true,
          "internalType": "uint256",
          "name": "tokenId",
          "type": "uint256"
        }
      ],
      "name": "Approval",
      "type": "event"
    },
    {
      "anonymous": false,
      "inputs": [
        {
          "indexed": true,
          "internalType": "address",
          "name": "owner",
          "type": "address"
        },
        {
          "indexed": true,
          "internalType": "address",
          "name": "operator",
          "type": "address"
        },
        {
          "indexed": false,
          "internalType": "bool",
          "name": "approved",
          "type": "bool"
        }
      ],
      "name": "ApprovalForAll",
      "type": "event"
    },
    {
      "anonymous": false,
      "inputs": [
        {
          "indexed": true,
          "internalType": "address",
          "name": "previousOwner",
          "type": "address"
        },
        {
          "indexed": true,
          "internalType": "address",
          "name": "newOwner",
          "type": "address"
        }
      ],
      "name": "OwnershipTransferred",
      "type": "event"
    },
    {
      "anonymous": false,
      "inputs": [
        {
          "indexed": true,
          "internalType": "address",
          "name": "from",
          "type": "address"
        },
        {
          "indexed": true,
          "internalType": "address",
          "name": "to",
          "type": "address"
        },
        {
          "indexed": true,
          "internalType": "uint256",
          "name": "tokenId",
          "type": "uint256"
        }
      ],
      "name": "Transfer",
      "type": "event"
    },
    {
      "inputs": [
        {
          "internalType": "address",
          "name": "to",
          "type": "address"
        },
        {
          "internalType": "uint256",
          "name": "tokenId",
          "type": "uint256"
        }
      ],
      "name": "approve",
      "outputs": [],
      "stateMutability": "nonpayable",
      "type": "function"
    },
    {
      "inputs": [
        {
          "internalType": "address",
          "name": "owner",
          "type": "address"
        }
      ],
      "name": "balanceOf",
      "outputs": [
        {
          "internalType": "uint256",
          "name": "",
          "type": "uint256"
        }
      ],
      "stateMutability": "view",
      "type": "function"
    },
    {
      "inputs": [
        {
          "internalType": "uint256",
          "name": "tokenId",
          "type": "uint256"
        }
      ],
      "name": "getApproved",
      "outputs": [
        {
          "internalType": "address",
          "name": "",
          "type": "address"
        }
      ],
      "stateMutability": "view",
      "type": "function"
    },
    {
      "inputs": [
        {
          "internalType": "uint256",
          "name": "tokenId",
          "type": "uint256"
        }
      ],
      "name": "getLandDetails",
      "outputs": [
        {
          "components": [
            {
              "internalType": "string",
              "name": "location",
              "type": "string"
            },
            {
              "internalType": "uint256",
              "name": "area",
              "type": "uint256"
            },
            {
              "internalType": "string",
              "name": "propertyType",
              "type": "string"
            },
            {
              "internalType": "string",
              "name": "ownerHistory",
              "type": "string"
            }
          ],
          "internalType": "struct LandToken.LandDetails",
          "name": "",
          "type": "tuple"
        }
      ],
      "stateMutability": "view",
      "type": "function"
    },
    {
      "inputs": [
        {
          "internalType": "address",
          "name": "owner",
          "type": "address"
        },
        {
          "internalType": "address",
          "name": "operator",
          "type": "address"
        }
      ],
      "name": "isApprovedForAll",
      "outputs": [
        {
          "internalType": "bool",
          "name": "",
          "type": "bool"
        }
      ],
      "stateMutability": "view",
      "type": "function"
    },
    {
      "inputs": [
        {
          "internalType": "uint256",
          "name": "",
          "type": "uint256"
        }
      ],
      "name": "lands",
      "outputs": [
        {
          "internalType": "string",
          "name": "location",
          "type": "string"
        },
        {
          "internalType": "uint256",
          "name": "area",
          "type": "uint256"
        },
        {
          "internalType": "string",
          "name": "propertyType",
          "type": "string"
        },
        {
          "internalType": "string",
          "name": "ownerHistory",
          "type": "string"
        }
      ],
      "stateMutability": "view",
      "type": "function"
    },
    {
      "inputs": [
        {
          "internalType": "string",
          "name": "location",
          "type": "string"
        },
        {
          "internalType": "uint256",
          "name": "area",
          "type": "uint256"
        },
        {
          "internalType": "string",
          "name": "propertyType",
          "type": "string"
        },
        {
          "internalType": "string",
          "name": "ownerHistory",
          "type": "string"
        }
      ],
      "name": "mintLand",
      "outputs": [],
      "stateMutability": "nonpayable",
      "type": "function"
    },
    {
      "inputs": [],
      "name": "name",
      "outputs": [
        {
          "internalType": "string",
          "name": "",
          "type": "string"
        }
      ],
      "stateMutability": "view",
      "type": "function"
    },
    {
      "inputs": [],
      "name": "nextTokenId",
      "outputs": [
        {
          "internalType": "uint256",
          "name": "",
          "type": "uint256"
        }
      ],
      "stateMutability": "view",
      "type": "function"
    },
    {
      "inputs": [],
      "name": "owner",
      "outputs": [
        {
          "internalType": "address",
          "name": "",
          "type": "address"
        }
      ],
      "stateMutability": "view",
      "type": "function"
    },
    {
      "inputs": [
        {
          "internalType": "uint256",
          "name": "tokenId",
          "type": "uint256"
        }
      ],
      "name": "ownerOf",
      "outputs": [
        {
          "internalType": "address",
          "name": "",
          "type": "address"
        }
      ],
      "stateMutability": "view",
      "type": "function"
    },
    {
      "inputs": [],
      "name": "renounceOwnership",
      "outputs": [],
      "stateMutability": "nonpayable",
      "type": "function"
    },
    {
      "inputs": [
        {
          "internalType": "address",
          "name": "from",
          "type": "address"
        },
        {
          "internalType": "address",
          "name": "to",
          "type": "address"
        },
        {
          "internalType": "uint256",
          "name": "tokenId",
          "type": "uint256"
        }
      ],
      "name": "safeTransferFrom",
      "outputs": [],
      "stateMutability": "nonpayable",
      "type": "function"
    },
    {
      "inputs": [
        {
          "internalType": "address",
          "name": "from",
          "type": "address"
        },
        {
          "internalType": "address",
          "name": "to",
          "type": "address"
        },
        {
          "internalType": "uint256",
          "name": "tokenId",
          "type": "uint256"
        },
        {
          "internalType": "bytes",
          "name": "data",
          "type": "bytes"
        }
      ],
      "name": "safeTransferFrom",
      "outputs": [],
      "stateMutability": "nonpayable",
      "type": "function"
    },
    {
      "inputs": [
        {
          "internalType": "address",
          "name": "operator",
          "type": "address"
        },
        {
          "internalType": "bool",
          "name": "approved",
          "type": "bool"
        }
      ],
      "name": "setApprovalForAll",
      "outputs": [],
      "stateMutability": "nonpayable",
      "type": "function"
    },
    {
      "inputs": [
        {
          "internalType": "bytes4",
          "name": "interfaceId",
          "type": "bytes4"
        }
      ],
      "name": "supportsInterface",
      "outputs": [
        {
          "internalType": "bool",
          "name": "",
          "type": "bool"
        }
      ],
      "stateMutability": "view",
      "type": "function"
    },
    {
      "inputs": [],
      "name": "symbol",
      "outputs": [
        {
          "internalType": "string",
          "name": "",
          "type": "string"
        }
      ],
      "stateMutability": "view",
      "type": "function"
    },
    {
      "inputs": [
        {
          "internalType": "uint256",
          "name": "tokenId",
          "type": "uint256"
        }
      ],
      "name": "tokenURI",
      "outputs": [
        {
          "internalType": "string",
          "name": "",
          "type": "string"
        }
      ],
      "stateMutability": "view",
      "type": "function"
    },
    {
      "inputs": [
        {
          "internalType": "address",
          "name": "from",
          "type": "address"
        },
        {
          "internalType": "address",
          "name": "to",
          "type": "address"
        },
        {
          "internalType": "uint256",
          "name": "tokenId",
          "type": "uint256"
        }
      ],
      "name": "transferFrom",
      "outputs": [],
      "stateMutability": "nonpayable",
      "type": "function"
    },
    {
      "inputs": [
        {
          "internalType": "address",
          "name": "to",
          "type": "address"
        },
        {
          "internalType": "uint256",
          "name": "tokenId",
          "type": "uint256"
        }
      ],
      "name": "transferLand",
      "outputs": [],
      "stateMutability": "nonpayable",
      "type": "function"
    },
    {
      "inputs": [
        {
          "internalType": "address",
          "name": "newOwner",
          "type": "address"
        }
      ],
      "name": "transferOwnership",
      "outputs": [],
      "stateMutability": "nonpayable",
      "type": "function"
    }
  ],
  "bytecode": "0x60806040523480156200001157600080fd5b50336040518060400160405280600981526020017f4c616e64546f6b656e00000000000000000000000000000000000000000000008152506040518060400160405280600381526020017f4c544b0000000000000000000000000000000000000000000000000000000000815250816000908162000090919062000472565b508060019081620000a2919062000472565b505050600073ffffffffffffffffffffffffffffffffffffffff168173ffffffffffffffffffffffffffffffffffffffff16036200011a5760006040517f1e4fbdf70000000000000000000000000000000000000000000000000000000081526004016200011191906200059e565b60405180910390fd5b6200012b816200013260201b60201c565b50620005bb565b6000600660009054906101000a900473ffffffffffffffffffffffffffffffffffffffff16905081600660006101000a81548173ffffffffffffffffffffffffffffffffffffffff021916908373ffffffffffffffffffffffffffffffffffffffff1602179055508173ffffffffffffffffffffffffffffffffffffffff168173ffffffffffffffffffffffffffffffffffffffff167f8be0079c531659141344cd1fd0a4f28419497f9722a3daafe3b4186f6b6457e060405160405180910390a35050565b600081519050919050565b7f4e487b7100000000000000000000000000000000000000000000000000000000600052604160045260246000fd5b7f4e487b7100000000000000000000000000000000000000000000000000000000600052602260045260246000fd5b600060028204905060018216806200027a57607f821691505b60208210810362000290576200028f62000232565b5b50919050565b60008190508160005260206000209050919050565b60006020601f8301049050919050565b600082821b905092915050565b600060088302620002fa7fffffffffffffffffffffffffffffffffffffffffffffffffffffffffffffffff82620002bb565b620003068683620002bb565b95508019841693508086168417925050509392505050565b6000819050919050565b6000819050919050565b6000620003536200034d62000347846200031e565b62000328565b6200031e565b9050919050565b6000819050919050565b6200036f8362000332565b620003876200037e826200035a565b848454620002c8565b825550505050565b600090565b6200039e6200038f565b620003ab81848462000364565b505050565b5b81811015620003d357620003c760008262000394565b600181019050620003b1565b5050565b601f8211156200042257620003ec8162000296565b620003f784620002ab565b8101602085101562000407578190505b6200041f6200041685620002ab565b830182620003b0565b50505b505050565b600082821c905092915050565b6000620004476000198460080262000427565b1980831691505092915050565b600062000462838362000434565b9150826002028217905092915050565b6200047d82620001f8565b67ffffffffffffffff81111562000499576200049862000203565b5b620004a5825462000261565b620004b2828285620003d7565b600060209050601f831160018114620004ea5760008415620004d5578287015190505b620004e1858262000454565b86555062000551565b601f198416620004fa8662000296565b60005b828110156200052457848901518255600182019150602085019450602081019050620004fd565b8683101562000544578489015162000540601f89168262000434565b8355505b6001600288020188555050505b505050505050565b600073ffffffffffffffffffffffffffffffffffffffff82169050919050565b6000620005868262000559565b9050919050565b620005988162000579565b82525050565b6000602082019050620005b560008301846200058d565b92915050565b612dc280620005cb6000396000f3fe608060405234801561001057600080fd5b50600436106101375760003560e01c80638da5cb5b116100b8578063c87b56dd1161007c578063c87b56dd14610326578063e261f1e514610356578063e985e9c514610389578063ede169f2146103b9578063f2fde38b146103d5578063fe0cb7dc146103f157610137565b80638da5cb5b1461029657806395d89b41146102b4578063a22cb465146102d2578063b3f40d6a146102ee578063b88d4fde1461030a57610137565b806342842e0e116100ff57806342842e0e146101f25780636352211e1461020e57806370a082311461023e578063715018a61461026e57806375794a3c1461027857610137565b806301ffc9a71461013c57806306fdde031461016c578063081812fc1461018a578063095ea7b3146101ba57806323b872dd146101d6575b600080fd5b61015660048036038101906101519190612009565b610421565b6040516101639190612051565b60405180910390f35b610174610503565b60405161018191906120fc565b60405180910390f35b6101a4600480360381019061019f9190612154565b610595565b6040516101b191906121c2565b60405180910390f35b6101d460048036038101906101cf9190612209565b6105b1565b005b6101f060048036038101906101eb9190612249565b6105c7565b005b61020c60048036038101906102079190612249565b6106c9565b005b61022860048036038101906102239190612154565b6106e9565b60405161023591906121c2565b60405180910390f35b6102586004803603810190610253919061229c565b6106fb565b60405161026591906122d8565b60405180910390f35b6102766107b5565b005b6102806107c9565b60405161028d91906122d8565b60405180910390f35b61029e6107cf565b6040516102ab91906121c2565b60405180910390f35b6102bc6107f9565b6040516102c991906120fc565b60405180910390f35b6102ec60048036038101906102e7919061231f565b61088b565b005b61030860048036038101906103039190612209565b6108a1565b005b610324600480360381019061031f9190612494565b610926565b005b610340600480360381019061033b9190612154565b61094b565b60405161034d91906120fc565b60405180910390f35b610370600480360381019061036b9190612154565b6109b4565b6040516103809493929190612517565b60405180910390f35b6103a3600480360381019061039e9190612571565b610b7c565b6040516103b09190612051565b60405180910390f35b6103d360048036038101906103ce9190612652565b610c10565b005b6103ef60048036038101906103ea919061229c565b610ccb565b005b61040b60048036038101906104069190612154565b610d51565b60405161041891906127d7565b60405180910390f35b60007f80ac58cd000000000000000000000000000000000000000000000000000000007bffffffffffffffffffffffffffffffffffffffffffffffffffffffff1916827bffffffffffffffffffffffffffffffffffffffffffffffffffffffff191614806104ec57507f5b5e139f000000000000000000000000000000000000000000000000000000007bffffffffffffffffffffffffffffffffffffffffffffffffffffffff1916827bffffffffffffffffffffffffffffffffffffffffffffffffffffffff1916145b806104fc57506104fb82610f3e565b5b9050919050565b60606000805461051290612828565b80601f016020809104026020016040519081016040528092919081815260200182805461053e90612828565b801561058b5780601f106105605761010080835404028352916020019161058b565b820191906000526020600020905b81548152906001019060200180831161056e57829003601f168201915b5050505050905090565b60006105a082610fa8565b506105aa82611030565b9050919050565b6105c382826105be61106d565b611075565b5050565b600073ffffffffffffffffffffffffffffffffffffffff168273ffffffffffffffffffffffffffffffffffffffff16036106395760006040517f64a0ae9200000000000000000000000000000000000000000000000000000000815260040161063091906121c2565b60405180910390fd5b600061064d838361064861106d565b611087565b90508373ffffffffffffffffffffffffffffffffffffffff168173ffffffffffffffffffffffffffffffffffffffff16146106c3578382826040517f64283d7b0000000000000000000000000000000000000000000000000000000081526004016106ba93929190612859565b60405180910390fd5b50505050565b6106e483838360405180602001604052806000815250610926565b505050565b60006106f482610fa8565b9050919050565b60008073ffffffffffffffffffffffffffffffffffffffff168273ffffffffffffffffffffffffffffffffffffffff160361076e5760006040517f89c62b6400000000000000000000000000000000000000000000000000000000815260040161076591906121c2565b60405180910390fd5b600360008373ffffffffffffffffffffffffffffffffffffffff1673ffffffffffffffffffffffffffffffffffffffff168152602001908152602001600020549050919050565b6107bd6112a1565b6107c76000611328565b565b60075481565b6000600660009054906101000a900473ffffffffffffffffffffffffffffffffffffffff16905090565b60606001805461080890612828565b80601f016020809104026020016040519081016040528092919081815260200182805461083490612828565b80156108815780601f1061085657610100808354040283529160200191610881565b820191906000526020600020905b81548152906001019060200180831161086457829003601f168201915b5050505050905090565b61089d61089661106d565b83836113ee565b5050565b3373ffffffffffffffffffffffffffffffffffffffff166108c1826106e9565b73ffffffffffffffffffffffffffffffffffffffff1614610917576040517f08c379a000000000000000000000000000000000000000000000000000000000815260040161090e906128dc565b60405180910390fd5b61092233838361155d565b5050565b6109318484846105c7565b61094561093c61106d565b858585856116ca565b50505050565b606061095682610fa8565b50600061096161187b565b9050600081511161098157604051806020016040528060008152506109ac565b8061098b84611892565b60405160200161099c929190612938565b6040516020818303038152906040525b915050919050565b60086020528060005260406000206000915090508060000180546109d790612828565b80601f0160208091040260200160405190810160405280929190818152602001828054610a0390612828565b8015610a505780601f10610a2557610100808354040283529160200191610a50565b820191906000526020600020905b815481529060010190602001808311610a3357829003601f168201915b505050505090806001015490806002018054610a6b90612828565b80601f0160208091040260200160405190810160405280929190818152602001828054610a9790612828565b8015610ae45780601f10610ab957610100808354040283529160200191610ae4565b820191906000526020600020905b815481529060010190602001808311610ac757829003601f168201915b505050505090806003018054610af990612828565b80601f0160208091040260200160405190810160405280929190818152602001828054610b2590612828565b8015610b725780601f10610b4757610100808354040283529160200191610b72565b820191906000526020600020905b815481529060010190602001808311610b5557829003601f168201915b5050505050905084565b6000600560008473ffffffffffffffffffffffffffffffffffffffff1673ffffffffffffffffffffffffffffffffffffffff16815260200190815260200160002060008373ffffffffffffffffffffffffffffffffffffffff1673ffffffffffffffffffffffffffffffffffffffff16815260200190815260200160002060009054906101000a900460ff16905092915050565b610c186112a1565b60006007549050610c293382611960565b604051806080016040528086815260200185815260200184815260200183815250600860008381526020019081526020016000206000820151816000019081610c729190612b08565b50602082015181600101556040820151816002019081610c929190612b08565b506060820151816003019081610ca89190612b08565b5090505060076000815480929190610cbf90612c09565b91905055505050505050565b610cd36112a1565b600073ffffffffffffffffffffffffffffffffffffffff168173ffffffffffffffffffffffffffffffffffffffff1603610d455760006040517f1e4fbdf7000000000000000000000000000000000000000000000000000000008152600401610d3c91906121c2565b60405180910390fd5b610d4e81611328565b50565b610d59611f75565b60086000838152602001908152602001600020604051806080016040529081600082018054610d8790612828565b80601f0160208091040260200160405190810160405280929190818152602001828054610db390612828565b8015610e005780601f10610dd557610100808354040283529160200191610e00565b820191906000526020600020905b815481529060010190602001808311610de357829003601f168201915b5050505050815260200160018201548152602001600282018054610e2390612828565b80601f0160208091040260200160405190810160405280929190818152602001828054610e4f90612828565b8015610e9c5780601f10610e7157610100808354040283529160200191610e9c565b820191906000526020600020905b815481529060010190602001808311610e7f57829003601f168201915b50505050508152602001600382018054610eb590612828565b80601f0160208091040260200160405190810160405280929190818152602001828054610ee190612828565b8015610f2e5780601f10610f0357610100808354040283529160200191610f2e565b820191906000526020600020905b815481529060010190602001808311610f1157829003601f168201915b5050505050815250509050919050565b60007f01ffc9a7000000000000000000000000000000000000000000000000000000007bffffffffffffffffffffffffffffffffffffffffffffffffffffffff1916827bffffffffffffffffffffffffffffffffffffffffffffffffffffffff1916149050919050565b600080610fb48361197e565b9050600073ffffffffffffffffffffffffffffffffffffffff168173ffffffffffffffffffffffffffffffffffffffff160361102757826040517f7e27328900000000000000000000000000000000000000000000000000000000815260040161101e91906122d8565b60405180910390fd5b80915050919050565b60006004600083815260200190815260200160002060009054906101000a900473ffffffffffffffffffffffffffffffffffffffff169050919050565b600033905090565b61108283838360016119bb565b505050565b6000806110938461197e565b9050600073ffffffffffffffffffffffffffffffffffffffff168373ffffffffffffffffffffffffffffffffffffffff16146110d5576110d4818486611b80565b5b600073ffffffffffffffffffffffffffffffffffffffff168173ffffffffffffffffffffffffffffffffffffffff1614611166576111176000856000806119bb565b6001600360008373ffffffffffffffffffffffffffffffffffffffff1673ffffffffffffffffffffffffffffffffffffffff168152602001908152602001600020600082825403925050819055505b600073ffffffffffffffffffffffffffffffffffffffff168573ffffffffffffffffffffffffffffffffffffffff16146111e9576001600360008773ffffffffffffffffffffffffffffffffffffffff1673ffffffffffffffffffffffffffffffffffffffff168152602001908152602001600020600082825401925050819055505b846002600086815260200190815260200160002060006101000a81548173ffffffffffffffffffffffffffffffffffffffff021916908373ffffffffffffffffffffffffffffffffffffffff160217905550838573ffffffffffffffffffffffffffffffffffffffff168273ffffffffffffffffffffffffffffffffffffffff167fddf252ad1be2c89b69c2b068fc378daa952ba7f163c4a11628f55a4df523b3ef60405160405180910390a4809150509392505050565b6112a961106d565b73ffffffffffffffffffffffffffffffffffffffff166112c76107cf565b73ffffffffffffffffffffffffffffffffffffffff1614611326576112ea61106d565b6040517f118cdaa700000000000000000000000000000000000000000000000000000000815260040161131d91906121c2565b60405180910390fd5b565b6000600660009054906101000a900473ffffffffffffffffffffffffffffffffffffffff16905081600660006101000a81548173ffffffffffffffffffffffffffffffffffffffff021916908373ffffffffffffffffffffffffffffffffffffffff1602179055508173ffffffffffffffffffffffffffffffffffffffff168173ffffffffffffffffffffffffffffffffffffffff167f8be0079c531659141344cd1fd0a4f28419497f9722a3daafe3b4186f6b6457e060405160405180910390a35050565b600073ffffffffffffffffffffffffffffffffffffffff168273ffffffffffffffffffffffffffffffffffffffff160361145f57816040517f5b08ba1800000000000000000000000000000000000000000000000000000000815260040161145691906121c2565b60405180910390fd5b80600560008573ffffffffffffffffffffffffffffffffffffffff1673ffffffffffffffffffffffffffffffffffffffff16815260200190815260200160002060008473ffffffffffffffffffffffffffffffffffffffff1673ffffffffffffffffffffffffffffffffffffffff16815260200190815260200160002060006101000a81548160ff0219169083151502179055508173ffffffffffffffffffffffffffffffffffffffff168373ffffffffffffffffffffffffffffffffffffffff167f17307eab39ab6107e8899845ad3d59bd9653f200f220920489ca2b5937696c31836040516115509190612051565b60405180910390a3505050565b600073ffffffffffffffffffffffffffffffffffffffff168273ffffffffffffffffffffffffffffffffffffffff16036115cf5760006040517f64a0ae920000000000000000000000000000000000000000000000000000000081526004016115c691906121c2565b60405180910390fd5b60006115dd83836000611087565b9050600073ffffffffffffffffffffffffffffffffffffffff168173ffffffffffffffffffffffffffffffffffffffff160361165057816040517f7e27328900000000000000000000000000000000000000000000000000000000815260040161164791906122d8565b60405180910390fd5b8373ffffffffffffffffffffffffffffffffffffffff168173ffffffffffffffffffffffffffffffffffffffff16146116c4578382826040517f64283d7b0000000000000000000000000000000000000000000000000000000081526004016116bb93929190612859565b60405180910390fd5b50505050565b60008373ffffffffffffffffffffffffffffffffffffffff163b1115611874578273ffffffffffffffffffffffffffffffffffffffff1663150b7a02868685856040518563ffffffff1660e01b81526004016117299493929190612ca6565b6020604051808303816000875af192505050801561176557506040513d601f19601f820116820180604052508101906117629190612d07565b60015b6117e9573d8060008114611795576040519150601f19603f3d011682016040523d82523d6000602084013e61179a565b606091505b5060008151036117e157836040517f64a0ae920000000000000000000000000000000000000000000000000000000081526004016117d891906121c2565b60405180910390fd5b805181602001fd5b63150b7a0260e01b7bffffffffffffffffffffffffffffffffffffffffffffffffffffffff1916817bffffffffffffffffffffffffffffffffffffffffffffffffffffffff19161461187257836040517f64a0ae9200000000000000000000000000000000000000000000000000000000815260040161186991906121c2565b60405180910390fd5b505b5050505050565b606060405180602001604052806000815250905090565b6060600060016118a184611c44565b01905060008167ffffffffffffffff8111156118c0576118bf612369565b5b6040519080825280601f01601f1916602001820160405280156118f25781602001600182028036833780820191505090505b509050600082602001820190505b600115611955578080600190039150507f3031323334353637383961626364656600000000000000000000000000000000600a86061a8153600a858161194957611948612d34565b5b04945060008503611900575b819350505050919050565b61197a828260405180602001604052806000815250611d97565b5050565b60006002600083815260200190815260200160002060009054906101000a900473ffffffffffffffffffffffffffffffffffffffff169050919050565b80806119f45750600073ffffffffffffffffffffffffffffffffffffffff168273ffffffffffffffffffffffffffffffffffffffff1614155b15611b28576000611a0484610fa8565b9050600073ffffffffffffffffffffffffffffffffffffffff168373ffffffffffffffffffffffffffffffffffffffff1614158015611a6f57508273ffffffffffffffffffffffffffffffffffffffff168173ffffffffffffffffffffffffffffffffffffffff1614155b8015611a825750611a808184610b7c565b155b15611ac457826040517fa9fbf51f000000000000000000000000000000000000000000000000000000008152600401611abb91906121c2565b60405180910390fd5b8115611b2657838573ffffffffffffffffffffffffffffffffffffffff168273ffffffffffffffffffffffffffffffffffffffff167f8c5be1e5ebec7d5bd14f71427d1e84f3dd0314c0f7b2291e5b200ac8c7c3b92560405160405180910390a45b505b836004600085815260200190815260200160002060006101000a81548173ffffffffffffffffffffffffffffffffffffffff021916908373ffffffffffffffffffffffffffffffffffffffff16021790555050505050565b611b8b838383611dbb565b611c3f57600073ffffffffffffffffffffffffffffffffffffffff168373ffffffffffffffffffffffffffffffffffffffff1603611c0057806040517f7e273289000000000000000000000000000000000000000000000000000000008152600401611bf791906122d8565b60405180910390fd5b81816040517f177e802f000000000000000000000000000000000000000000000000000000008152600401611c36929190612d63565b60405180910390fd5b505050565b600080600090507a184f03e93ff9f4daa797ed6e38ed64bf6a1f0100000000000000008310611ca2577a184f03e93ff9f4daa797ed6e38ed64bf6a1f0100000000000000008381611c9857611c97612d34565b5b0492506040810190505b6d04ee2d6d415b85acef81000000008310611cdf576d04ee2d6d415b85acef81000000008381611cd557611cd4612d34565b5b0492506020810190505b662386f26fc100008310611d0e57662386f26fc100008381611d0457611d03612d34565b5b0492506010810190505b6305f5e1008310611d37576305f5e1008381611d2d57611d2c612d34565b5b0492506008810190505b6127108310611d5c576127108381611d5257611d51612d34565b5b0492506004810190505b60648310611d7f5760648381611d7557611d74612d34565b5b0492506002810190505b600a8310611d8e576001810190505b80915050919050565b611da18383611e7c565b611db6611dac61106d565b60008585856116ca565b505050565b60008073ffffffffffffffffffffffffffffffffffffffff168373ffffffffffffffffffffffffffffffffffffffff1614158015611e7357508273ffffffffffffffffffffffffffffffffffffffff168473ffffffffffffffffffffffffffffffffffffffff161480611e345750611e338484610b7c565b5b80611e7257508273ffffffffffffffffffffffffffffffffffffffff16611e5a83611030565b73ffffffffffffffffffffffffffffffffffffffff16145b5b90509392505050565b600073ffffffffffffffffffffffffffffffffffffffff168273ffffffffffffffffffffffffffffffffffffffff1603611eee5760006040517f64a0ae92000000000000000000000000000000000000000000000000000000008152600401611ee591906121c2565b60405180910390fd5b6000611efc83836000611087565b9050600073ffffffffffffffffffffffffffffffffffffffff168173ffffffffffffffffffffffffffffffffffffffff1614611f705760006040517f73c6ac6e000000000000000000000000000000000000000000000000000000008152600401611f6791906121c2565b60405180910390fd5b505050565b6040518060800160405280606081526020016000815260200160608152602001606081525090565b6000604051905090565b600080fd5b600080fd5b60007fffffffff0000000000000000000000000000000000000000000000000000000082169050919050565b611fe681611fb1565b8114611ff157600080fd5b50565b60008135905061200381611fdd565b92915050565b60006020828403121561201f5761201e611fa7565b5b600061202d84828501611ff4565b91505092915050565b60008115159050919050565b61204b81612036565b82525050565b60006020820190506120666000830184612042565b92915050565b600081519050919050565b600082825260208201905092915050565b60005b838110156120a657808201518184015260208101905061208b565b60008484015250505050565b6000601f19601f8301169050919050565b60006120ce8261206c565b6120d88185612077565b93506120e8818560208601612088565b6120f1816120b2565b840191505092915050565b6000602082019050818103600083015261211681846120c3565b905092915050565b6000819050919050565b6121318161211e565b811461213c57600080fd5b50565b60008135905061214e81612128565b92915050565b60006020828403121561216a57612169611fa7565b5b60006121788482850161213f565b91505092915050565b600073ffffffffffffffffffffffffffffffffffffffff82169050919050565b60006121ac82612181565b9050919050565b6121bc816121a1565b82525050565b60006020820190506121d760008301846121b3565b92915050565b6121e6816121a1565b81146121f157600080fd5b50565b600081359050612203816121dd565b92915050565b600080604083850312156122205761221f611fa7565b5b600061222e858286016121f4565b925050602061223f8582860161213f565b9150509250929050565b60008060006060848603121561226257612261611fa7565b5b6000612270868287016121f4565b9350506020612281868287016121f4565b92505060406122928682870161213f565b9150509250925092565b6000602082840312156122b2576122b1611fa7565b5b60006122c0848285016121f4565b91505092915050565b6122d28161211e565b82525050565b60006020820190506122ed60008301846122c9565b92915050565b6122fc81612036565b811461230757600080fd5b50565b600081359050612319816122f3565b92915050565b6000806040838503121561233657612335611fa7565b5b6000612344858286016121f4565b92505060206123558582860161230a565b9150509250929050565b600080fd5b600080fd5b7f4e487b7100000000000000000000000000000000000000000000000000000000600052604160045260246000fd5b6123a1826120b2565b810181811067ffffffffffffffff821117156123c0576123bf612369565b5b80604052505050565b60006123d3611f9d565b90506123df8282612398565b919050565b600067ffffffffffffffff8211156123ff576123fe612369565b5b612408826120b2565b9050602081019050919050565b82818337600083830152505050565b6000612437612432846123e4565b6123c9565b90508281526020810184848401111561245357612452612364565b5b61245e848285612415565b509392505050565b600082601f83011261247b5761247a61235f565b5b813561248b848260208601612424565b91505092915050565b600080600080608085870312156124ae576124ad611fa7565b5b60006124bc878288016121f4565b94505060206124cd878288016121f4565b93505060406124de8782880161213f565b925050606085013567ffffffffffffffff8111156124ff576124fe611fac565b5b61250b87828801612466565b91505092959194509250565b6000608082019050818103600083015261253181876120c3565b905061254060208301866122c9565b818103604083015261255281856120c3565b9050818103606083015261256681846120c3565b905095945050505050565b6000806040838503121561258857612587611fa7565b5b6000612596858286016121f4565b92505060206125a7858286016121f4565b9150509250929050565b600067ffffffffffffffff8211156125cc576125cb612369565b5b6125d5826120b2565b9050602081019050919050565b60006125f56125f0846125b1565b6123c9565b90508281526020810184848401111561261157612610612364565b5b61261c848285612415565b509392505050565b600082601f8301126126395761263861235f565b5b81356126498482602086016125e2565b91505092915050565b6000806000806080858703121561266c5761266b611fa7565b5b600085013567ffffffffffffffff81111561268a57612689611fac565b5b61269687828801612624565b94505060206126a78782880161213f565b935050604085013567ffffffffffffffff8111156126c8576126c7611fac565b5b6126d487828801612624565b925050606085013567ffffffffffffffff8111156126f5576126f4611fac565b5b61270187828801612624565b91505092959194509250565b600082825260208201905092915050565b60006127298261206c565b612733818561270d565b9350612743818560208601612088565b61274c816120b2565b840191505092915050565b6127608161211e565b82525050565b60006080830160008301518482036000860152612783828261271e565b91505060208301516127986020860182612757565b50604083015184820360408601526127b0828261271e565b915050606083015184820360608601526127ca828261271e565b9150508091505092915050565b600060208201905081810360008301526127f18184612766565b905092915050565b7f4e487b7100000000000000000000000000000000000000000000000000000000600052602260045260246000fd5b6000600282049050600182168061284057607f821691505b602082108103612853576128526127f9565b5b50919050565b600060608201905061286e60008301866121b3565b61287b60208301856122c9565b61288860408301846121b3565b949350505050565b7f4e6f7420746865206f776e657200000000000000000000000000000000000000600082015250565b60006128c6600d83612077565b91506128d182612890565b602082019050919050565b600060208201905081810360008301526128f5816128b9565b9050919050565b600081905092915050565b60006129128261206c565b61291c81856128fc565b935061292c818560208601612088565b80840191505092915050565b60006129448285612907565b91506129508284612907565b91508190509392505050565b60008190508160005260206000209050919050565b60006020601f8301049050919050565b600082821b905092915050565b6000600883026129be7fffffffffffffffffffffffffffffffffffffffffffffffffffffffffffffffff82612981565b6129c88683612981565b95508019841693508086168417925050509392505050565b6000819050919050565b6000612a05612a006129fb8461211e565b6129e0565b61211e565b9050919050565b6000819050919050565b612a1f836129ea565b612a33612a2b82612a0c565b84845461298e565b825550505050565b600090565b612a48612a3b565b612a53818484612a16565b505050565b5b81811015612a7757612a6c600082612a40565b600181019050612a59565b5050565b601f821115612abc57612a8d8161295c565b612a9684612971565b81016020851015612aa5578190505b612ab9612ab185612971565b830182612a58565b50505b505050565b600082821c905092915050565b6000612adf60001984600802612ac1565b1980831691505092915050565b6000612af88383612ace565b9150826002028217905092915050565b612b118261206c565b67ffffffffffffffff811115612b2a57612b29612369565b5b612b348254612828565b612b3f828285612a7b565b600060209050601f831160018114612b725760008415612b60578287015190505b612b6a8582612aec565b865550612bd2565b601f198416612b808661295c565b60005b82811015612ba857848901518255600182019150602085019450602081019050612b83565b86831015612bc55784890151612bc1601f891682612ace565b8355505b6001600288020188555050505b505050505050565b7f4e487b7100000000000000000000000000000000000000000000000000000000600052601160045260246000fd5b6000612c148261211e565b91507fffffffffffffffffffffffffffffffffffffffffffffffffffffffffffffffff8203612c4657612c45612bda565b5b600182019050919050565b600081519050919050565b600082825260208201905092915050565b6000612c7882612c51565b612c828185612c5c565b9350612c92818560208601612088565b612c9b816120b2565b840191505092915050565b6000608082019050612cbb60008301876121b3565b612cc860208301866121b3565b612cd560408301856122c9565b8181036060830152612ce78184612c6d565b905095945050505050565b600081519050612d0181611fdd565b92915050565b600060208284031215612d1d57612d1c611fa7565b5b6000612d2b84828501612cf2565b91505092915050565b7f4e487b7100000000000000000000000000000000000000000000000000000000600052601260045260246000fd5b6000604082019050612d7860008301856121b3565b612d8560208301846122c9565b939250505056fea2646970667358221220a24af0827cace8d7b8e85ad33e21d56d2d99ec77dbfd30b0be1d4ea72986f70d64736f6c63430008140033",
  "linkReferences": {},
  "deployedLinkReferences": {}
}